{
  "contractName": "Shop",
  "abi": [
    {
      "inputs": [
        {
          "internalType": "address",
          "name": "_tokenAddress",
          "type": "address"
        }
      ],
      "payable": false,
      "stateMutability": "nonpayable",
      "type": "constructor"
    },
    {
      "anonymous": false,
      "inputs": [
        {
          "indexed": false,
          "internalType": "uint256",
          "name": "pid",
          "type": "uint256"
        },
        {
          "indexed": false,
          "internalType": "address",
          "name": "seller",
          "type": "address"
        },
        {
          "indexed": false,
          "internalType": "uint256",
          "name": "timestamp",
          "type": "uint256"
        }
      ],
      "name": "AddressProduct",
      "type": "event"
    },
    {
      "anonymous": false,
      "inputs": [
        {
          "indexed": false,
          "internalType": "uint256",
          "name": "pid",
          "type": "uint256"
        },
        {
          "indexed": false,
          "internalType": "address",
          "name": "buyer",
          "type": "address"
        },
        {
          "indexed": false,
          "internalType": "uint256",
          "name": "timestamp",
          "type": "uint256"
        }
      ],
      "name": "BuyProduct",
      "type": "event"
    },
    {
      "constant": false,
      "inputs": [
        {
          "internalType": "string",
          "name": "_name",
          "type": "string"
        },
        {
          "internalType": "string",
          "name": "_imgPath",
          "type": "string"
        },
        {
          "internalType": "uint256",
          "name": "_price",
          "type": "uint256"
        },
        {
          "internalType": "uint256",
          "name": "_quantity",
          "type": "uint256"
        },
        {
          "internalType": "uint256",
          "name": "_pid",
          "type": "uint256"
        },
        {
          "internalType": "uint256",
          "name": "timestamp",
          "type": "uint256"
        }
      ],
      "name": "addProduct",
      "outputs": [],
      "payable": false,
      "stateMutability": "nonpayable",
      "type": "function"
    },
    {
      "constant": true,
      "inputs": [
        {
          "internalType": "uint256",
          "name": "_pid",
          "type": "uint256"
        }
      ],
      "name": "getProduct",
      "outputs": [
        {
          "internalType": "string",
          "name": "",
          "type": "string"
        },
        {
          "internalType": "uint256",
          "name": "",
          "type": "uint256"
        },
        {
          "internalType": "uint256",
          "name": "",
          "type": "uint256"
        },
        {
          "internalType": "string",
          "name": "",
          "type": "string"
        },
        {
          "internalType": "address",
          "name": "",
          "type": "address"
        }
      ],
      "payable": false,
      "stateMutability": "view",
      "type": "function"
    },
    {
      "constant": false,
      "inputs": [
        {
          "internalType": "uint256",
          "name": "_pid",
          "type": "uint256"
        },
        {
          "internalType": "uint256",
          "name": "_timestamp",
          "type": "uint256"
        }
      ],
      "name": "buyProduct",
      "outputs": [],
      "payable": false,
      "stateMutability": "nonpayable",
      "type": "function"
    }
  ],
  "bytecode": "0x608060405234801561001057600080fd5b506040516108543803806108548339818101604052602081101561003357600080fd5b5051600280546001600160a01b0319166001600160a01b039092169190911790556107f1806100636000396000f3fe608060405234801561001057600080fd5b50600436106100415760003560e01c806353b62866146100465780635c8d189d1461006b578063b9db15b4146101a9575b600080fd5b6100696004803603604081101561005c57600080fd5b50803590602001356102cb565b005b610069600480360360c081101561008157600080fd5b81019060208101813564010000000081111561009c57600080fd5b8201836020820111156100ae57600080fd5b803590602001918460018302840111640100000000831117156100d057600080fd5b91908080601f016020809104026020016040519081016040528093929190818152602001838380828437600092019190915250929594936020810193503591505064010000000081111561012357600080fd5b82018360208201111561013557600080fd5b8035906020019184600183028401116401000000008311171561015757600080fd5b91908080601f0160208091040260200160405190810160405280939291908181526020018383808284376000920191909152509295505082359350505060208101359060408101359060600135610453565b6101c6600480360360208110156101bf57600080fd5b503561053b565b604051808060200186815260200185815260200180602001846001600160a01b03166001600160a01b03168152602001838103835288818151815260200191508051906020019080838360005b8381101561022b578181015183820152602001610213565b50505050905090810190601f1680156102585780820380516001836020036101000a031916815260200191505b50838103825285518152855160209182019187019080838360005b8381101561028b578181015183820152602001610273565b50505050905090810190601f1680156102b85780820380516001836020036101000a031916815260200191505b5097505050505050505060405180910390f35b600082815260208190526040902060030154610324576040805162461bcd60e51b8152602060048201526013602482015272141c9bd91d58dd081a5cc81cdbdb19081bdd5d606a1b604482015290519081900360640190fd5b600082815260208181526040808320600280546004808401549284015485516317d5759960e31b8152339281018390526001600160a01b0394851660248201526044810191909152945193969095929091169363beabacc8936064808301949391928390030190829087803b15801561039c57600080fd5b505af11580156103b0573d6000803e3d6000fd5b505050506040513d60208110156103c657600080fd5b505060038201805460001901905560008481526001602081815260408084208054938401815584529281902090910180546001600160a01b0385166001600160a01b0319909116811790915582518781529182015280820185905290517f6e963996302b87595be0bd0f2d400e2f43c1cfce4378ba7e9b34305fe2f2746b9181900360600190a150505050565b6040805160a081018252878152602080820188905281830187905260608201869052336080830152600085815280825292909220815180519293919261049c92849201906106e9565b5060208281015180516104b592600185019201906106e9565b5060408281015160028301556060808401516003840155608090930151600490920180546001600160a01b0319166001600160a01b0390931692909217909155805184815233602082015280820184905290517f45842816cf863bb39f654b39d571cd192f0cf4a783973a4820022e31823478e0929181900390910190a1505050505050565b60606000806060600061054c610767565b600087815260208181526040918290208251815460026001821615610100026000190190911604601f8101849004909302810160c090810190945260a081018381529093919284928491908401828280156105e85780601f106105bd576101008083540402835291602001916105e8565b820191906000526020600020905b8154815290600101906020018083116105cb57829003601f168201915b50505050508152602001600182018054600181600116156101000203166002900480601f01602080910402602001604051908101604052809291908181526020018280546001816001161561010002031660029004801561068a5780601f1061065f5761010080835404028352916020019161068a565b820191906000526020600020905b81548152906001019060200180831161066d57829003601f168201915b5050509183525050600282015460208083019190915260038301546040808401919091526004909301546001600160a01b03166060928301528351928401519184015190840151608090940151929b919a509850919650945092505050565b828054600181600116156101000203166002900490600052602060002090601f016020900481019282601f1061072a57805160ff1916838001178555610757565b82800160010185558215610757579182015b8281111561075757825182559160200191906001019061073c565b5061076392915061079f565b5090565b6040518060a001604052806060815260200160608152602001600081526020016000815260200160006001600160a01b031681525090565b6107b991905b8082111561076357600081556001016107a5565b9056fea265627a7a72315820b1d37a86fb043dcc93fc92791dfb906fd64f26d1022e6b42a75bb0fbbafd0a7c64736f6c63430005100032",
  "source": "pragma solidity >=0.4.22 <0.9.0;\n\nimport \"./Token.sol\";\n\ncontract Shop {\n\n  struct Product { // Tables\n    string name;\n    string imgPath;\n    uint256 price;\n    uint256 quantity;\n    address seller;\n  }\n\n  event AddressProduct(uint256 pid, address seller, uint256 timestamp); // CRUD\n  event BuyProduct(uint256 pid, address buyer, uint256 timestamp); // CRUD\n\n  mapping(uint256 => Product) products; // query Tables Product\n  mapping(uint256 => address[]) buying; // query address\n\n  Token token;\n\n  constructor (address _tokenAddress) public {\n    token = Token(_tokenAddress);\n  }\n\n  function addProduct (\n    string memory _name,\n    string memory _imgPath,\n    uint256 _price,\n    uint256 _quantity,\n    uint256 _pid,\n    uint256 timestamp\n  ) public {\n\n    products[_pid] = Product({\n      name: _name,\n      imgPath: _imgPath,\n      price: _price,\n      quantity: _quantity,\n      seller: msg.sender\n    });\n\n    emit AddressProduct(_pid, msg.sender, timestamp);\n\n  }\n\n  function getProduct(uint256 _pid) public view returns (\n    string memory,\n    uint256,\n    uint256,\n    string memory,\n    address\n  ) {\n\n    Product memory product = products[_pid];\n\n    return (\n      product.name,\n      product.price,\n      product.quantity,\n      product.imgPath,\n      product.seller\n    );\n\n  }\n\n  function buyProduct(uint256 _pid, uint256 _timestamp) public {\n\n      require( products[_pid].quantity > 0, \"Product is sold out\");\n      // expect 0\n\n      Product storage product = products[_pid];\n      // Storage หมายถึงตัวแปรที่ถูกจัดเก็บอย่างถาวรบน blokchain Memory หมายถึงตัวแปรที่ถูกจัดเก็บชั่วคราว\n\n      address _buyer = msg.sender;\n      token.transfer(_buyer, product.seller, product.price);\n\n      product.quantity -= 1;\n      buying[_pid].push(_buyer);\n      emit BuyProduct(_pid, _buyer, _timestamp);\n\n\n\n  }\n\n\n\n}",
  "sourcePath": "/Users/champdev/Documents/GitHub/simple_ecommerce_contract/contracts/Shop.sol",
  "compiler": {
    "name": "solc",
    "version": "0.5.16+commit.9c3226ce.Emscripten.clang"
  },
  "schemaVersion": "3.4.7",
  "updatedAt": "2022-07-23T18:24:07.280Z",
  "devdoc": {
    "methods": {}
  },
  "userdoc": {
    "methods": {}
  }
}